:10013A003F065B4F666D7D077F6F777C395E79710D
:1000E100D2A775807FD2B6C2B6D2B67F0A12012CD2
:1000F1007590FFD2B7C2B7AF907508008F09D2B71C
:10010100850990750A00750B14AF09AE081200033A
:10011100E50B150B7002150AD3E50B9400E50A9463
:050121000050E680BB68
:06012600D2A7C2A77F0A68
:0D012C00EFD3940040077EC8DEFE1F80F375
:0101390022A3
:10000300AB07AA067C007D6412008C743A2FF5823C
:1000130074013EF583E493F580D2A6C2A67580FEF3
:100023001201267C007D64AF03AE0212008C7E00B9
:100033007F0ACFCDCFCECCCE12008C743A2FF5826F
:1000430074013EF583E493F580D2A6C2A67580FDC4
:10005300120126AE02AF037C007D6412008C7E0089
:100063007F0ACFCDCFCECCCE12008C743A2DF58241
:1000730074013CF583E493F580D2A6C2A67580FB98
:09008300D2A7C2A77F0A02012CDA
:0300000002014AB0
:0C014A00787FE4F6D8FD75810B0200E11F
:10008C00BC000BBE0029EF8DF084FFADF022E4CC58
:10009C00F875F008EF2FFFEE33FEEC33FCEE9DEC21
:1000AC00984005FCEE9DFE0FD5F0E9E4CEFD22ED67
:1000BC00F8F5F0EE8420D21CFEADF075F008EF2FB1
:1000CC00FFED33FD4007985006D5F0F222C398FDA2
:0500DC000FD5F0EA223F
:00000001FF
