:0809C20009080C040602030100
:0709BA0002094E20010801B3
:10088C0020B0091209AB20B00375080120B1091280
:10089C0009AB20B103E4F508E5086029E4F50BF594
:1008AC000CC3E50C9408E50B940050D4E50C9009AE
:1008BC00C293F590AF0AAE091209AF050CE50C70A6
:1008CC00E0050B80DC750B00750C07C3E50B940081
:1008DC0040AEE50C9009C293F590AF0AAE0912092F
:0B08EC00AFE50C150C70E4150B80E06C
:030013000208F7E9
:1008F700C0E0C0F0C083C082C0D075D000C000C0C7
:1009070001C002C003C004C005C006C0077FF47E53
:10091700011209AF20B31820B0091209AB20B003A8
:1009270012097720B1091209AB20B103120951D07E
:1009370007D006D005D004D003D002D001D000D014
:0A094700D0D082D083D0F0D0E0328F
:0409AB007F327E0019
:0B09AF00EF1FAC0670011E4C70F6221A
:100977007418250AF50A74FC3509F509C3E50A94C4
:0E098700E8E50994035006750903750AE82295
:1009510074E8250AF50A74033509F509FEAF0AE4BE
:10096100FCFD7B807A387901F8C312099550067530
:060971000938750A80221E
:03000000020800F3
:0C080000787FE4F6D8FD75810C020847F3
:10099500EB9FF5F0EA9E42F0E99D42F0EC6480C8D9
:0609A50064809845F02279
:10080C0002088CE493A3F8E493A34003F68001F26E
:10081C0008DFF48029E493A3F85407240CC8C333ED
:10082C00C4540F4420C8834004F456800146F6DFBC
:10083C00E4800B01020408102040809009BAE47E89
:10084C00019360BCA3FF543F30E509541FFEE493B1
:10085C00A360010ECF54C025E060A840B8E493A378
:10086C00FAE493A3F8E493A3C8C582C8CAC583CAA3
:10087C00F0A3C8C582C8CAC583CADFE9DEE780BE5B
:0109C1000035
:00000001FF
