:1008DB0010083F065B4F666D7D077F6F777C395E37
:0208EB00797121
:10088C00E4F518F51974082519F8E6F580D2A6C216
:10089C00A67580FDD2A7C2A71208BF1208BF120806
:1008AC00BF0519E51970020518C39410E5189400DA
:0208BC0040D327
:0108BE002217
:0408BF007FF47E0143
:1008C3007C007D5B1208EED3EF9400EE94004007AA
:0708D300EF1F70F31E80F01F
:0108DA0022FB
:03000000020800F3
:0C080000787FE4F6D8FD758119020847E6
:1008EE00EF8DF0A4A8F0CF8CF0A428CE8DF0A42E1E
:0208FE00FE22D8
:10080C0002088CE493A3F8E493A34003F68001F26E
:10081C0008DFF48029E493A3F85407240CC8C333ED
:10082C00C4540F4420C8834004F456800146F6DFBC
:10083C00E4800B01020408102040809008DBE47E69
:10084C00019360BCA3FF543F30E509541FFEE493B1
:10085C00A360010ECF54C025E060A840B8E493A378
:10086C00FAE493A3F8E493A3C8C582C8CAC583CAA3
:10087C00F0A3C8C582C8CAC583CADFE9DEE780BE5B
:0108ED00000A
:00000001FF
