:1000C40010083F065B4F666D7D077F6F777C395E56
:0200D400797140
:1000AF007580EAD2A7C2A7850A8012008F850B80C0
:0500BF0012008F80EB30
:08008F00D2A6C2A67FE87E03A1
:100097007C007D5B1200D7D3EF9400EE94004007FD
:0700A700EF1F70F31E80F053
:0100AE00222F
:03000000020003F8
:0C000300787FE4F6D8FD75811702004AF2
:1000D700EF8DF0A4A8F0CF8CF0A428CE8DF0A42E3D
:0200E700FE22F7
:10000F000200AFE493A3F8E493A34003F68001F258
:10001F0008DFF48029E493A3F85407240CC8C333F2
:10002F00C4540F4420C8834004F456800146F6DFC1
:10003F00E4800B01020408102040809000C4E47E8D
:10004F00019360BCA3FF543F30E509541FFEE493B6
:10005F00A360010ECF54C025E060A840B8E493A37D
:10006F00FAE493A3F8E493A3C8C582C8CAC583CAA8
:10007F00F0A3C8C582C8CAC583CADFE9DEE780BE60
:0100D6000029
:00000001FF
