:1009FC0053554E002A2A2A004D4F4E0057454E00A3
:0C0A0C0054485500465249005341540024
:1008ED00150FFF09FCFF0A00FF0A04FF0A08FF0AA3
:1008FD000CFF0A10FF0A14122444415445203030D5
:10090D002D30302D30302020202000123654494D0E
:0F091D00452030302D30302D303020202020006C
:10092D001209B6120A317B007A00793BAF0B120A1D
:10093D00187B007A00793EAF0C120A187B007A0002
:10094D007941AF0E120A187B007A007924E4FF1268
:04095D00096180CFDD
:0C09DA00C2A1C2A28B80D2A27F017E00CD
:1009E600EF1FAA0670011E4A600BE4FDEDC3947862
:0509F60050EE0D80F73A
:0109FB0022D9
:0E0A6900E4FEEF139290D291C2910EBE08F4FB
:010A7700225C
:10098D00E4FEFDA290E433FFA80508800123D8FD05
:10099D004206D291C2910DBD08E9EEC4540F75F017
:0809AD000AA4FFEE540F2FFF16
:0109B500221F
:100A4700C292C291D292120A6912098DD291C291B1
:010A5700227C
:100A31007C81E4FBAF04120A4774082BF8A6070C6B
:050A41000C0BBB07EFE8
:010A4600228D
:100A5800C2A0D2A11209E0AC80C2A21209E2AF047E
:010A6800226B
:0E0A7800120A58EF20E7F97F057E000209E61A
:0D0A8600AB07120A78D2A01209DAC2A22230
:0D0A9300AB07120A78C2A01209DAC2A22233
:1009B6007F38120A931209E27F01120A931209E2A2
:1009C6007F06120A931209E27F0C120A937F017EB8
:0409D600000209E62C
:070AA000EF4480FF020A93FE
:060961008B488A49894A17
:10096700120AA0E4F54BAB48AA49A94A854B827500
:10097700830012088CFF120A861209E2054BE54B29
:05098700C3941040E1E3
:01098C002248
:100A1800EF75F00A8424301208B9EF75F00A84E5FE
:090A2800F024309000010208CB1B
:03000000020800F3
:0C080000787FE4F6D8FD75814B020847B4
:10088C00BB010CE58229F582E5833AF583E0225021
:10089C0006E92582F8E622BBFE06E92582F8E2226B
:0D08AC00E58229F582E5833AF583E4932285
:1008B900BB010689828A83F0225002F722BBFE011E
:0208C900F32218
:1008CB00F8BB010DE58229F582E5833AF583E8F063
:1008DB00225006E92582C8F622BBFE05E92582C80F
:0208EB00F222F7
:10080C0002092DE493A3F8E493A34003F68001F2CC
:10081C0008DFF48029E493A3F85407240CC8C333ED
:10082C00C4540F4420C8834004F456800146F6DFBC
:10083C00E4800B01020408102040809008EDE47E57
:10084C00019360BCA3FF543F30E509541FFEE493B1
:10085C00A360010ECF54C025E060A840B8E493A378
:10086C00FAE493A3F8E493A3C8C582C8CAC583CAA3
:10087C00F0A3C8C582C8CAC583CADFE9DEE780BE5B
:01092C0000CA
:00000001FF
