:100B3E0053554E002A2A2A004D4F4E0057454E005F
:0C0B4E00544855004652490053415400E1
:100A4400150FFF0B3EFF0B42FF0B46FF0B4AFF0B3C
:100A54004EFF0B52FF0B56122444415445203030B4
:100A64002D30302D30302020202000123654494DB6
:0F0A7400452030302D30302D3030202020200014
:1009D600120AD9120B5AAF0E120B1F7B007A00793E
:1009E6002CAF0C120B257B007A007925AF0B120B6E
:1009F60025E50D75F003A4240FF8860308E6FA082A
:100A0600E6F978317C007D0012092DAF0A120B1F22
:100A16007B007A00792CAF09120B257B007A0079CE
:100A260025AF08120B257B007A007924E4FF120A11
:0E0A3600847B007A0079367F40120A84809516
:0C0AFD00C2A1C2A28B80D2A27F017E00A9
:100B0900EF1FAA0670011E4A600BE4FDEDC394783D
:050B190050EE0D80F715
:010B1E0022B4
:0E0B9200E4FEEF139290D291C2910EBE08F4D1
:010BA0002232
:100AB000E4FEFDA290E433FFA80508800123D8FDE1
:100AC0004206D291C2910DBD08E9EEC4540F75F0F3
:080AD0000AA4FFEE540F2FFFF2
:010AD80022FB
:100B7000C292C291D292120B92120AB0D291C29139
:010B80002252
:100B5A007C81E4FBAF04120B7074082BF8A6070C17
:050B6A000C0BBB07EFBE
:010B6F002263
:100B8100C2A0D2A1120B03AC80C2A2120B05AF040A
:010B91002241
:0E0BA100120B81EF20E7F97F057E00020B09A1
:0D0BAF00AB07120BA1D2A0120AFDC2A222B8
:0D0BBC00AB07120BA1C2A0120AFDC2A222BB
:100AD9007F38120BBC120B057F01120BBC120B05E0
:100AE9007F06120BBC120B057F0C120BBC7F017E1B
:040AF90000020B09E3
:070BC900EF4480FF020BBCAA
:060A84008B488A49894AF3
:100A8A00120BC9E4F54BAB48AA49A94A854B8275B2
:100A9A008300120800FF120BAF120B05054BE54B42
:050AAA00C3941040E1BF
:010AAF002224
:060B1F007B007A00792939
:100B2500EF75F00A84243012082DEF75F00A84E57C
:090B3500F0243090000102083F99
:0300000002094AA8
:0C094A00787FE4F6D8FD75814B0209911E
:10080000BB010CE58229F582E5833AF583E02250AD
:1008100006E92582F8E622BBFE06E92582F8E222F7
:0D082000E58229F582E5833AF583E4932211
:10082D00BB010689828A83F0225002F722BBFE01AA
:02083D00F322A4
:10083F00F8BB010DE58229F582E5833AF583E8F0EF
:10084F00225006E92582C8F622BBFE05E92582C89B
:02085F00F22283
:10086100E709F60870FA8046E709F20870FA803E57
:1008710088828C83E709F0A370FA807EE309F60889
:1008810070FA8076E309F20870FA806E88828C83B0
:10089100E309F0A370FA806289828A83E0A3F608F3
:1008A10070FA805689828A83E0A3F20870FA804A3E
:1008B10080D280FA80C680D4806580F28031801039
:1008C10080A680EA809A80A880DA80E280CA80319E
:1008D10089828A83ECFAE493A3C8C582C8CCC58314
:1008E100CCF0A3C8C582C8CCC583CC70E9800D8982
:1008F100828A83E493A3F60870F9ECFAA9F0EDFB80
:100901002289828A83ECFAE0A3C8C582C8CCC58358
:10091100CCF0A3C8C582C8CCC583CC70EA80DD8980
:10092100828A83E493A3F20870F980CE88F0ED24E3
:1009310002B4040050C4F582EB2402B4040050BA9E
:0909410023234582239008B173C1
:100956000209D6E493A3F8E493A34003F68001F2D8
:1009660008DFF48029E493A3F85407240CC8C333A2
:10097600C4540F4420C8834004F456800146F6DF71
:10098600E4800B0102040810204080900A44E47EB3
:10099600019360BCA3FF543F30E509541FFEE49366
:1009A600A360010ECF54C025E060A840B8E493A32D
:1009B600FAE493A3F8E493A3C8C582C8CAC583CA58
:1009C600F0A3C8C582C8CAC583CADFE9DEE780BE10
:010A83000072
:00000001FF
