:1001130011093F065B4F666D7D077F6F777C395E04
:030123007971F6F9
:10008F00E4F51AF51BF51CE590540FF51D640F6090
:10009F005A7F147E001200FBE590540F651D7049C6
:1000AF00F51BF51CE590540FB51D2DE51D24F960CA
:1000BF001A24FC601124FE6008147012751A018056
:1000CF000D751A028008751A038003751A04051C32
:1000DF00E51C70D0051B80CCD3E51C9410E51B9458
:0B00EF002740067404251AF51AAF1A0A
:0100FA0022E3
:1001390012008F8F08E50860F72409F8E6F5A0801A
:01014900EFC6
:1000FB007C007D5B120127D3EF9400EE9400400748
:07010B00EF1F70F31E80F0EE
:0101120022CA
:03000000020003F8
:0C000300787FE4F6D8FD75811D02004AEC
:10012700EF8DF0A4A8F0CF8CF0A428CE8DF0A42EEC
:02013700FE22A6
:10000F00020139E493A3F8E493A34003F68001F2CD
:10001F0008DFF48029E493A3F85407240CC8C333F2
:10002F00C4540F4420C8834004F456800146F6DFC1
:10003F00E4800B0102040810204080900113E47E3D
:10004F00019360BCA3FF543F30E509541FFEE493B6
:10005F00A360010ECF54C025E060A840B8E493A37D
:10006F00FAE493A3F8E493A3C8C582C8CAC583CAA8
:10007F00F0A3C8C582C8CAC583CADFE9DEE780BE60
:0101260000D8
:00000001FF
