:1001760011093F065B4F666D7D077F6F777C395EA1
:030186007971F696
:1000030075900FE590540FF51A640F700302009773
:100013007F647E0012015EE51A640F6077E59054F9
:100023000FF51A44F0F590E59054F0251A120138B3
:10003300008B77007F7B00737D00677E008EB700A7
:1000430082BB0076BD006ABE0091D70085DB0079D4
:10005300DD006DDE0094E70088EB007CED0070EEC0
:10006300000000977F01227F02227F03227F042268
:100073007F05227F06227F07227F08227F09227FB6
:100083000A227F0B227F0C227F0D227F0E227F0FFD
:06009300227F10227F0015
:010099002244
:10018A001200038F08E50860F72409F8E6F5A08055
:01019A00EF75
:10015E007C007D5B120126D3EF9400EE94004007E5
:07016E00EF1F70F31E80F08B
:010175002267
:0300000002009A61
:0C009A00787FE4F6D8FD75811A0200E1C1
:10012600EF8DF0A4A8F0CF8CF0A428CE8DF0A42EED
:02013600FE22A7
:10013800D083D082F8E4937012740193700DA3A356
:1001480093F8740193F5828883E47374029368606A
:06015800EFA3A3A380DF6A
:1000A60002018AE493A3F8E493A34003F68001F2E5
:1000B60008DFF48029E493A3F85407240CC8C3335B
:1000C600C4540F4420C8834004F456800146F6DF2A
:1000D600E4800B0102040810204080900176E47E43
:1000E600019360BCA3FF543F30E509541FFEE4931F
:1000F600A360010ECF54C025E060A840B8E493A3E6
:10010600FAE493A3F8E493A3C8C582C8CAC583CA10
:10011600F0A3C8C582C8CAC583CADFE9DEE780BEC8
:010189000075
:00000001FF
