:10089B0048656C6C6F204F564354454B2100546890
:0B08AB0069732069732059584E21002A
:0F08D000D2A01208B6D2A27F051208BCC2A22283
:0F08DF00C2A01208B6D2A27F051208BCC2A22284
:10085D00C2A1C2A07F361208DF7F0F1208DF7F38DA
:10086D001208DF7F061208DF7F011208DF7F80028A
:02087D0008DF92
:060800008B088A09890A39
:10080600E4F50BF50CAB08AA09A90A850C82850B41
:1008160083120830FF60121208D07FC81208BC0588
:090826000CE50C70E0050B80DC10
:01082F0022A6
:0608B600C2A18F807F0546
:1008BC00EF6010E4FDFC0DBD00010CEDF44C70F686
:0308CC001F80ED9D
:0108CF002206
:10087F0012085D7BFF7A08799B1208007FC012086F
:0C088F00DF7BFF7A0879A912080080FEC8
:030000000208EE05
:0C08EE00787FE4F6D8FD75810C02087FCD
:10083000BB010CE58229F582E5833AF583E022507D
:1008400006E92582F8E622BBFE06E92582F8E222C7
:0D085000E58229F582E5833AF583E49322E1
:00000001FF
