:1008AE004D59205151204E554D4245520037393940
:0708BE0039373432393600EE
:0B0861008F807F057E0012086CD2B46F
:10086C00E4FDFCC3ED9FEC9E5018E4FBFAC3EB9F38
:10087C00EA9E50070BBB00010A80F20DBD00010C73
:02088C0080E109
:01088E002247
:0808D100C2B5120861C2B42295
:0808D900D2B5120861C2B4227D
:10088F00C2A6C2A7C2B47F381208D17F0E1208D1F8
:0F089F007F061208D17F011208D17F400208D1D5
:1008000012088F7F931208D1E4F508E5089008AE2E
:1008100093FF1208D97F147E0012086C0508E508C2
:10082000C3940C40E67FD31208D1E4F508E50890A4
:1008300008BB93FF1208D97F147E0012086C0508CC
:10084000E508C3940940E6E4F5087F181208D17F53
:10085000C87E0012086C0508E508C3941340EB80BD
:01086000FE99
:030000000208C52E
:0C08C500787FE4F6D8FD75810802080079
:00000001FF
