:03000600010C6486
:1002C000750A03750BE8758901E50B25E0FFE50A62
:1002D00033AB07FAE4F9F87F407E427D0FFC12034E
:1002E00045C3E49FFFE49EFE74019DFDE49CFCE495
:1002F000FB7A01F9F81203458F08E50B25E0FFE5CD
:100300000A33AB07FAE4F9F87F407E427D0FFC1216
:100310000345C3E49FFFE49EFE74019DFDE49CFC45
:10032000E4FB7A01F9F8120345AF038F0985098AC6
:1003300085088CD2AFD2A9D2A8D2AAD288D28AD22A
:05034000B9D28C80FE23
:03000B0002038964
:09038900B2B085098A85088C32A6
:0300030002018D6A
:10018D00C0E0C0F0C083C082C0D075D000C000C038
:10019D0001C002C003C004C005C006C007E50C25A0
:1001AD000BF50BE4350AF50AE50B25E0FFE50A33FF
:1001BD00AB07FAE4F9F87F407E427D0FFC12034550
:1001CD00C3E49FFFE49EFE74019DFDE49CFCE4FBF3
:1001DD007A01F9F81203458F08E50B25E0FFE50AD2
:1001ED0033AB07FAE4F9F87F407E427D0FFC120332
:1001FD0045C3E49FFFE49EFE74019DFDE49CFCE479
:10020D00FB7A01F9F8120345AF038F09D007D00629
:10021D00D005D004D003D002D001D000D0D0D082F0
:07022D00D083D0F0D0E032D5
:030013000200E404
:1000E400C0E0C0F0C083C082C0D075D000C000C0E2
:1000F40001C002C003C004C005C006C007C3E50BAD
:10010400950CF50BE50A9400F50AE50B25E0FFE5EF
:100114000A33AB07FAE4F9F87F407E427D0FFC1204
:100124000345C3E49FFFE49EFE74019DFDE49CFC33
:10013400E4FB7A01F9F81203458F08E50B25E0FF8B
:10014400E50A33AB07FAE4F9F87F407E427D0FFC01
:10015400120345C3E49FFFE49EFE74019DFDE49CED
:10016400FCE4FB7A01F9F8120345AF038F09D007C9
:10017400D006D005D004D003D002D001D000D0D016
:09018400D082D083D0F0D0E0322B
:03000000020234C5
:0C023400787FE4F6D8FD75810C02027B97
:10034500C2D5E830E70FB2D5E4C39BFBE49AFAE4E3
:1003550099F9E498F8EC30E717B2D512037B12004F
:1003650052E4C39BFBE49AFAE499F9E498F8800314
:1003750012005230D50DE4C39FFFE49EFEE49DFDBF
:04038500E49CFC22D6
:100240000202C0E493A3F8E493A34003F68001F212
:1002500008DFF48029E493A3F85407240CC8C333BF
:10026000C4540F4420C8834004F456800146F6DF8E
:10027000E4800B0102040810204080900006E47E18
:10028000019360BCA3FF543F30E509541FFEE49383
:10029000A360010ECF54C025E060A840B8E493A34A
:1002A000FAE493A3F8E493A3C8C582C8CAC583CA75
:1002B000F0A3C8C582C8CAC583CADFE9DEE780BE2D
:0100090000F6
:1000160075F008758200EF2FFFEE33FECD33CDCCA1
:1000260033CCC58233C5829BED9AEC99E582984024
:100036000CF582EE9BFEED9AFDEC99FC0FD5F0D601
:10004600E4CEFBE4CDFAE4CCF9A88222B800C1B92B
:100056000059BA002DEC8BF084CFCECDFCE5F0CB69
:10006600F97818EF2FFFEE33FEED33FDEC33FCEBA2
:1000760033FB10D703994004EB99FB0FD8E5E4F95D
:10008600FA227818EF2FFFEE33FEED33FDEC33FC4A
:10009600C933C910D7059BE99A4007EC9BFCE99A3E
:1000A600F90FD8E0E4C9FAE4CCFB2275F010EF2F83
:1000B600FFEE33FEED33FDCC33CCC833C810D70783
:1000C6009BEC9AE899400AED9BFDEC9AFCE899F8BE
:0E00D6000FD5F0DAE4CDFBE4CCFAE4C8F92251
:00000001FF
