:06091B00010A0A010801B7
:1008F800E4FDFCC3ED9FEC9E50070DBD00010C808C
:10090800F2E4FCFDC3ED9FEC9E50070DBD00010C09
:0209180080F26B
:01091A0022BA
:10088C00758901758CFF758AF7D2AFD2A9D28CE528
:10089C0008250AF50A7F147E001208F8E50AC394AD
:1008AC0064400A7508FF7F887E131208F8E50AD3A6
:1008BC00940250DB7508017F887E131208F880CFF4
:03000B000208CC1C
:1008CC00C0E0C0D0C28C758CFF758AF7D28CE5095C
:1008DC00C394644003750900E509D3950A5004D20A
:0C08EC00B38002C2B30509D0D0D0E032C6
:03000000020800F3
:0C080000787FE4F6D8FD75810A020847F5
:10080C0002088CE493A3F8E493A34003F68001F26E
:10081C0008DFF48029E493A3F85407240CC8C333ED
:10082C00C4540F4420C8834004F456800146F6DFBC
:10083C00E4800B010204081020408090091BE47E28
:10084C00019360BCA3FF543F30E509541FFEE493B1
:10085C00A360010ECF54C025E060A840B8E493A378
:10086C00FAE493A3F8E493A3C8C582C8CAC583CAA3
:10087C00F0A3C8C582C8CAC583CADFE9DEE780BE5B
:0109210000D5
:00000001FF
