:0A08F400010900010803020A0000D8
:1008E400758901758CFE758A33D2A9D28CD2AF2258
:03000B0002088C5C
:10088C00C0E0C0D0C28C758CFE758A33E509D39557
:10089C00085004D2B38002C2B30509E509C39428F9
:1008AC00400B750900050BE50B7002050AD28CD0C4
:0408BC00D0D0E03286
:1008C0001208E4E50BB4F408E50AB4010375080165
:1008D000E50BB4E8EEE50AB403E9750805E4F50AAA
:0408E000F50B80DFB5
:03000000020800F3
:0C080000787FE4F6D8FD75810B020847F4
:10080C000208C0E493A3F8E493A34003F68001F23A
:10081C0008DFF48029E493A3F85407240CC8C333ED
:10082C00C4540F4420C8834004F456800146F6DFBC
:10083C00E4800B01020408102040809008F4E47E50
:10084C00019360BCA3FF543F30E509541FFEE493B1
:10085C00A360010ECF54C025E060A840B8E493A378
:10086C00FAE493A3F8E493A3C8C582C8CAC583CAA3
:10087C00F0A3C8C582C8CAC583CADFE9DEE780BE5B
:0108FE0000F9
:00000001FF
