:10096D003F065B4F666D7D077F6F777C395E7971D2
:06097D00FEFDFBF7EFDFB9
:1008FF00D2AFD2A9758901758C3C758AB0D28CE5BF
:10090F000CB40110E4F50CAF0BFEBE0305BFE802FB
:0D091F00F50B050BAF0B7E0012080080E207
:03000B0002098F58
:09098F00758C3C758AB0050C3230
:04080000AB07AA0692
:100804007C007D641208AA8F087C007D0AAF03AEC9
:10081400021208AA7C007D0A1208AA8D09AE02AF52
:10082400037C007D0A1208AA8D0A7580FFD2A7C234
:10083400A7AF08EF3395E0FE746D2FF58274093E7F
:10084400F583E493F580D2A6C2A690097D120955DA
:100854007580FFD2A7C2A7AF09EF3395E0FE746D90
:100864002FF58274093EF583E493F580D2A6C2A6DF
:1008740090097E1209557580FFD2A7C2A7AF0AEF6F
:100884003395E0FE746D2FF58274093EF583E4938D
:10089400F580D2A6C2A690097FE493F580D2A7C2C0
:0608A400A77F0A02095FB4
:10092C007C007D0A1208AA746D2DF58274093CF5C1
:10093C0083E493F580D2A6C2A690097DE493F5805A
:09094C00D2A7C2A77F3202095FA5
:0A095500E493F580D2A7C2A77F0A41
:0D095F00EFD3940040077EC8DEFE1F80F33A
:01096C002268
:030000000209836F
:0C098300787FE4F6D8FD75810C0208FFB7
:1008AA00BC000BBE0029EF8DF084FFADF022E4CC32
:1008BA00F875F008EF2FFFEE33FEEC33FCEE9DECFB
:1008CA00984005FCEE9DFE0FD5F0E9E4CEFD22ED41
:1008DA00F8F5F0EE8420D21CFEADF075F008EF2F8B
:1008EA00FFED33FD4007985006D5F0F222C398FD7C
:0508FA000FD5F0EA2219
:00000001FF
