:10091F003F065B4F666D7D077F6F777C395E797120
:1008DE00D2AFD2A9758901758C3C758AB0D28CE5E0
:1008EE0009B41410E4F509AF08FEBE0305BFE80213
:0D08FE00F5080508AF087E0012080080E232
:03000B0002093BAC
:09093B00758C3C758AB005093287
:100800008E0A8F0B7C007D64120889741F2FF5827D
:1008100074093EF583E493F580D2A6C2A67580FEE6
:1008200012090BAE0AAF0B7C007D641208897E00B2
:100830007F0ACFCDCFCECCCE120889741F2FF58280
:1008400074093EF583E493F580D2A6C2A67580FDB7
:1008500012090BAE0AAF0B7C007D641208897E0082
:100860007F0ACFCDCFCECCCE120889741F2DF58252
:1008700074093CF583E493F580D2A6C2A67580FB8B
:09088000D2A7C2A77F0A020911E8
:06090B00D2A7C2A77F0A7B
:0D091100EFD3940040077EC8DEFE1F80F388
:01091E0022B6
:0300000002092FC3
:0C092F00787FE4F6D8FD75810B0208DE2D
:10088900BC000BBE0029EF8DF084FFADF022E4CC53
:10089900F875F008EF2FFFEE33FEEC33FCEE9DEC1C
:1008A900984005FCEE9DFE0FD5F0E9E4CEFD22ED62
:1008B900F8F5F0EE8420D21CFEADF075F008EF2FAC
:1008C900FFED33FD4007985006D5F0F222C398FD9D
:0508D9000FD5F0EA223A
:00000001FF
