:10089700AF031208C27FF47E011208AA7590287F61
:0308A700F47E01DB
:1008AA007C007D5B1208D6D3EF9400EE94004007DB
:0708BA00EF1F70F31E80F038
:0108C1002214
:1008C200EF75F00A84FEEF75F00A84EEC454F02549
:0308D200F0F5A09E
:0108D5002200
:10080000D2B230B20FE4F508D2B2759082AF0812BE
:1008100008C280EE7F147E001208AAD2B220B2E095
:1008200075080AAA08C3EA648094854011AF0212D1
:1008300008C21208A67590821208A61A80E77A05E7
:10084000AF021208C27590801208A6759082120835
:10085000A61AC3EA6480948050E67A03AF021208B5
:10086000C27590841208A61208A61AC3EA6480947E
:100870008050E97508147B051208971BC3EB648050
:10088000948050F47B0AC3EB64809480408F759011
:07089000081208971B80EF1E
:030000000208E80B
:0C08E800787FE4F6D8FD75810902080055
:1008D600EF8DF0A4A8F0CF8CF0A428CE8DF0A42E36
:0208E600FE22F0
:00000001FF
